:020000040000FA
:020000001628C0
:08000800F0000308F1000C18E0
:1000100025230B1E0D288B18C5228C1B1D230B19A5
:0C002000222371088300F00E700E09000E
:04002C008312031325
:100030008501860107309F0083160313C7308100B6
:10004000F0308B00B03085000130860081308C00AC
:10005000831203138C01A101A201A017A601A00124
:10006000B401C901B430CE000130CA000230C6006C
:10007000C1000030A0222308C700C8000130A02220
:100080002308CF000230C5000130C000B800BE0018
:10009000BC00B901BF01BD014F08003A0319552842
:1000A0000310B80DB90DCF0B5028003090008E0111
:1000B0008F0183120313A61E6A28831603139C184C
:1000C0006A28F2210130A1000430A200A0173122D9
:1000D0002613692883120313A01D71282E08B0214E
:1000E000A011A61F7928A613A2010230A100A01317
:1000F0003122261BD02883120313051AAF28491A70
:1001000089280130B800A100B901A201A01731224D
:1001100095283808A1003908A2000310A10DA20DEE
:100120008618A013861CA0173122503081002010A1
:10013000201C9828051E9A28491AA0284916AF287D
:100140000310B80DB90DB91DAF28A101A201A0136C
:100150003122831603138614831203136300391D9F
:10016000C8280310BE0DBF0D3F1DB9280130BE00C9
:10017000BF01C00BB1280130C0003E08803C03180D
:10018000C3280130BE003F08033C0318C828BF0144
:10019000201CD0280230810081092010D12031227A
:1001A0005928391DF4283808BA003908BB003C0822
:1001B000B8003D08B900C915491DF42849113E0889
:1001C0003C0203183F08031C3F0A3D02031DF028B0
:1001D0000310BF0CBE0C031CF0280230BE00BF0190
:1001E0003E08BC003F08BD00A01EFD28A101A201E1
:1001F000C50BA129A0122012A129201A4A294108C1
:10020000A0222308203A031D0A2938182017B918FC
:1002100020171229381B4914381849143918A0140A
:10022000B81820172308FF3A031D2829C70B2129D6
:100230004808C7000230C6004915B81A2017381BF5
:1002400020174608C10038182017B918201745296B
:1002500023080D3A031D3E29C70B37294808C7005C
:10026000410AC6004915B81A2017381B201746083E
:10027000C10038182017B91820174529C10A4108AC
:10028000803A031D45294608C1002308C423C20043
:100290002016C30143084207E124C400C30A4308EF
:1002A000053A031D5729A0160230C500C3013819AD
:1002B0002017201F61292013A01B6029A017612986
:1002C000A013B819A013381AA017B81BA014A01CAB
:1002D0007829A0100310CE0D4E0EE039CE0C4E073B
:1002E0004E074E07353CCE00CE19A017CE1DA013E9
:1002F0004408A100A20138187F29381FA129491CF0
:1003000093294910C9188C290310CA0D4A1E8B293C
:100310000430CA00C91493290310CA0C031C932982
:100320000230CA00C9104A18A129CA1801304A1956
:100330000230CA190330CB000310A10DA20DCB0B64
:100340009C29B91CA8290310A10DA20DA109A2097D
:10035000C91DAF29C9113A08B8003B08B900080007
:10036000AC00FE3A031DB8292015A612B401CA2913
:10037000201DCA292C08FF3A031DC2292011A616E8
:10038000CB21CA29CB21B40A3408803A031DCA29DB
:100390002011A61608008312031334084F3C031CD7
:1003A000DD2983160313A03083120313340784005E
:1003B0002C08831603138000EE2983120313503098
:1003C0003402831783120317203E840083138312A1
:1003D00003132C08831783120317800083138312DF
:1003E00003130800831203132616B50135084F3C8A
:1003F000031C082A83160313A03083120313350746
:10040000840083160313000883120313B600162A10
:100410008312031350303502831783120317203ED3
:1004200084000008831383120313B6003508A40068
:100430003608A5006400261E1A2AA9228312031377
:100440002612B50A3508803A03192A2A3608FF3AD7
:10045000031DF62983120313A6126400261E2D2AFB
:1004600008000508CC000608CD0083160313FF30F2
:1004700086007F30850083120313A01BCD14A01FBC
:10048000CD10A01B6E2AB030CC050330CD0521184D
:100490004C15A118CC152119CC14A1194C14211AF2
:1004A0004C17A11ACD17211B4D17A11BCD162218D1
:1004B0004D16A2184D152219CD1583160313B03011
:1004C00085000130860083120313013086054D0834
:1004D0008604B03085054C088504982A4F30CC043A
:1004E000FC30CD0421184C11A118CC112119CC10CD
:1004F000A1194C10211A4C13A11ACD13211B4D1315
:10050000A11BCD1222184D12A2184D112219CD1186
:1005100083160313B0308500013086008312031365
:10052000FE3086044D0886054F3085044C0885054D
:1005300086180230861C01302119023EC0000800D6
:10054000831603139B001C141A0883120313A300C1
:100550000800831203132408831603139B008312DD
:1005600003132508831603139A00831603131C151F
:100570008B138B1BB82A55309D00AA309D009C140C
:100580008B171C118312031308008B1083120313A3
:10059000A6191C2B261CD72A28088E0029088F0094
:1005A0000830AF00A6150B120C1010141C2BA61847
:1005B000E72A061C1C2B8E018F0110142617A61784
:1005C00083160313011383120313A6141C2B26197D
:1005D0001C2B061CF12AA2010130A100A01331221C
:1005E000F02A8316031301178312031310100E0849
:1005F000AA000F08AB000330A7000310AB0CAA0C35
:10060000A70BFD2A03102B0CA9002A0CA8001B30F5
:10061000AA0203180030031C0130AB022A08A80705
:1006200003182B0A031C2B08A907A809A909AA0962
:10063000AB09261426151C2B08008C1383120313F8
:10064000261608000B1120140800A61D382B0310D5
:10065000061C0314AD0C2A088E002B088F00AF0B6C
:10066000382B10102D08AE00A015A6118B100B16FC
:040670000C10080062
:08078800B000B101FF3A031DAE
:10079000CA2BF12B30080D3A031DCF2BF12B1F3044
:1007A0003002B2000130B20704300318013E8A0063
:1007B00032080124B30030089D3C0318E52B3308B0
:1007C000FF3C0319F12B3115F42B3008523C031870
:1007D000EF2B3308FF3C0319F12BB114F42B311428
:0C07E000F42B0030B30031143308080083
:0407EC00013EB20018
:1007F0000030B20707300318013E8A003208002794
:020800000800EE
:0E0802008200003405340A340F3414341934E3
:100810001E34233428342D34323437343C344134BC
:1008200046344B34503455345A345F34643469346C
:100830006E34733478347D34823487348C3491341C
:1008400096349B34A034A534AA34AF34B434B934CC
:10085000BE34C334C834CD34D234D734DC34E1347C
:10086000E634EB34F034F534FA34003405340A3429
:100870000F34143419341E34233428342D343234D4
:1008800037343C34413446344B34503455345A3484
:100890005F34643469346E34733478347D34823434
:1008A00087348C34913496349B34A034A534AA34E4
:1008B000AF34B434B934BE34C334C834CD34D23494
:1008C000FF34FF34FF34FF34D734DC34E134FF34F9
:1008D000FF34FF34FF34FF34E634FF34FF34EB34AD
:1008E000F034FF34FF34FF34FF34FF34FF34FF347F
:1008F000FF34FF34FF34FF34F534FF34FF34FA346F
:100900000034FF34FF340534FF34FF34FF34FF3448
:10091000FF340A34FF34FF34FF34FF34FF34FF3434
:10092000FF34FF340F34FF34FF34FF34FF34FF341F
:10093000FF34FF34FF34FF34FF34FF341434FF340A
:100940001934FF341E342334FF34FF3428342D345B
:10095000FF34FF3432343734FF34FF343C34413415
:10096000FF344634FF34FF344B3450345534FF34B5
:10097000FF34FF345A345F346434FF34FF34693455
:10098000FF34FF346E347334FF34FF3478347D34F5
:10099000FF34FF3482348734FF34FF348C34913495
:1009A000FF349634FF34FF349B34A034A534FF3435
:1009B000FF34AA34AF34B434B934FF34FF34BE3416
:0209C000FF3402
:0E09C2003118F324B118E8243119F623080087
:1009D000013EB2000030B20706300318013E8A0023
:0609E000320800260800A9
:0A09E600013EB2000030B2070530F8
:0C09F0000318013E8A00320800250800B0
:0409FC00003400348F
:100A00008200003400340034003400340034BE343A
:100A1000003400340034003406340034063400342A
:100A200028347C3428347C34283424344A34FF3449
:100A30004A3430344034243410344834043440349C
:100A4000A4349A34643490340034063400340034CE
:100A5000003400343C344234813400340034813476
:100A600042343C3400340034283410342834003408
:100A7000003410343834103400348034603400349E
:100A80000034003400341034103410340034003496
:100A900040340034003400344034203410340834FE
:100AA00004347C34A23492348A347C340034843468
:100AB000FE34803400348434C234A23492348C3412
:100AC000423482348A3496346234303428342434C4
:100AD000FE3420344E348A348A348A347234783482
:100AE00094349234923460340234E23412340A344E
:100AF00006346C349234923492346C340C34923424
:100B0000923452343C340034243400340034003401
:100B100080346434003400340034103428344434D5
:100B2000823400340034283428342834003400342B
:100B300082344434283410340434A23412340C3453
:100B4000003464349234F23482347C34FC34223401
:100B500022342234FC34FE349234923492346C3495
:100B60007C348234823482344434FE34823482349D
:100B700044343834FE349234923492348234FE3425
:100B800012341234123402347C348234923492346B
:100B9000F434FE34103410341034FE340034823413
:100BA000FE34823400344034803482347E34023463
:100BB000FE341034283444348234FE34803480349B
:100BC00080348034FE34043418340434FE34FE346B
:100BD000083410342034FE347C348234823482343D
:100BE0007C34FE341234123412340C347C348234AB
:100BF000A2344234BC34FE341234323452348C3495
:100C000082008C349234923492346234023402344E
:100C1000FE34023402347E348034803480347E34B6
:100C20003E344034803440343E347E34803470343A
:100C300080347E34C634283410342834C6340E341C
:100C40001034E03410340E34C234A23492348A3476
:100C500086340034FE348234823400340434083460
:100C6000103420344034003482348234FE34003472
:100C7000083404340234043408348034803480343A
:100C80008034803400340234043408340034403476
:100C9000A834A834A834F034FE349034883488342E
:100CA00070347034883488348834403470348834F4
:100CB00088349034FE347034A834A834A8343034E6
:100CC0001034FC341234023404341834A434A43400
:100CD000A4347C34FE34103408340834F034003446
:100CE0008834FA34803400344034803488347A34A0
:100CF0000034FE34203450348834003400348234DC
:100D0000FE3480340034F834083430340834F0349D
:100D1000F834103408340834F034703488348834AB
:100D200088347034F834283428342834103410349B
:100D3000283428343034F834F83410340834083483
:100D400010349034A834A834A834403408347E34A5
:100D50008834803440347834803480344034F834FB
:100D6000383440348034403438347834803460341B
:100D700080347834883450342034503488341834F3
:100D8000A034A034A03478348834C834A8349834DB
:100D90008834003410346C3482340034003400342D
:100DA000FE3400340034003482346C3410340034A7
:100DB0008034603400340034003400348034003433
:100DC000003400348034603400348034603448347B
:100DD000953496349534603404340534FE34053447
:100DE00004348834C934AA34993488341034AA3489
:100DF000AC34AA34403408347E34893482344134EB
:100E000082009034D234B4349234803400340234CA
:100E10000434023400344C349634AA34D23464346A
:100E2000003404340A3404340034FE348034823410
:100E3000843482348434FC34823404340234FC3408
:100E40001434343456348934F034283428342A3471
:100E5000F134F034293424342934F034FE3480342D
:100E6000823481348034783485348634853448340F
:100E7000F834A834AA3489348834F834A934AA342C
:100E80008934883400348834F8348A340134FD34A9
:100E90008634853448343034FD340A3411342034F7
:100EA000FC34783484348634853478347834863429
:100EB000853486347834FC341534363455348834EB
:100EC0007C348234853482347C347C348034823483
:100ED00081347C340C341034E23411340C34F83462
:100EE00010340A34093410344034A834AA34A934F4
:100EF000F0344034AA34A834AA34F03400348834AE
:100F0000FA3481340034703489348A34893440347A
:100F10007034A834AA34A93430347034A934AA34D3
:100F2000A934303400349034F434823400347034D2
:100F300089348A349134FE34F83411340A34093453
:100F4000F034703488348A348934703470348A349C
:100F500089348A34703410341034543410341034DA
:100F6000F83411340A340934103478348234853436
:100F70004234F8347834803482344134F8341834CC
:0A0F8000A034A234A1347834003408
:02400E00321E60
:1042000032000A00410068006F006A000D00530090
:104210005600450054000D003A002900FF00FF0041
:04422000FF00FF009C
:00000001FF
